:030000000207BC38
:0C07BC00787FE4F6D8FD75812002075C10
:10069100C2A68F807F017E001206A2D2A77F057EAF
:0106A1000058
:1006A200D3EF9400EE9400400F7DC77C01DCFEDDA9
:0806B200FAEF1F70EB1E80E857
:0106BA00221D
:0A07D300C2A7C2A5120691C2A72218
:0A07DD00C2A7D2A5120691C2A722FE
:100790007F381207D37F0C1207D37F061207D37F4F
:0907A000011207D37F800207D388
:10065E002020204920616D2046756C6C20202020C2
:10066E0000202049206E656564207761746572A351
:10067E00A10020204920616D20746869727374791D
:03068E0020200029
:10075C00120790C200120585EFF4F5081207A912D2
:0A076C0003721206241204DF80E974
:10062400E50A6035E5096031E508C3950940087BB2
:10063400FF7A06795E801AE508D3950A7BFF500D90
:100644007A06796F1207211206E0C2A0227A06798F
:0A065400801207211206E0D2A02256
:100372003090030204DE1207763090030204DE306E
:1003820090FD7F011207D31207767F831207D37F76
:10039200531207DD7F451207DD7F541207DD7F2DE3
:1003A2001207DD7F521207DD7F481207DD7F201220
:1003B20007DD7F4C1207DD7FCA1207D3E50A75F00D
:1003C20064842430FF1207DDE50A75F06484E5F0E9
:1003D20075F00A842430FF1207DDE50A75F00A84FD
:1003E200E5F02430FF1207DD2091171207762091E5
:1003F200113091FD7405250AF50AC394FA4003757C
:100402000AFA2092171207762092113092FD74FB9D
:10041200250AF50AD394005003E4F50A309003024A
:10042200038C12077630900302038C3090FD7F011B
:100432001207D37F831207D37F531207DD7F451242
:1004420007DD7F541207DD7F2D1207DD7F52120771
:10045200DD7F481207DD7F201207DD7F481207DDAE
:100462007FCA1207D3E50975F064842430FF1207AE
:10047200DDE50975F06484E5F075F00A842430FF47
:100482001207DDE50975F00A84E5F02430FF120752
:10049200DD2091171207762091113091FD74052508
:1004A20009F509C394FA40037509FA209217120755
:1004B200762092113092FD74FB2509F509D3940040
:1004C2005003E4F5093090030204351207763090A8
:0D04D200030204353090FD7F011207D32294
:1007A9001205E08E0B8F0C7C007D641202D98E0B32
:0307B9008F0C2280
:1004DF007F801207D37F541207DD7F501207DD7F15
:1004EF003A1207DDAE0BAF0C7C007D641202D9EF20
:1004FF002430FF1207DDAE0BAF0C7C007D641202BF
:10050F00D97E007F0ACFCDCFCECCCE1202D9EF2429
:10051F0030FF1207DDAE0BAF0C7C007D0A1202D943
:10052F00ED2430FF1207DD7FDF1207DD7F43120757
:10053F00DD7F891207D37F521207DD7F481207DD57
:10054F007F201207DD7F3A1207DDE50875F064841E
:10055F002430FF1207DDE50875F06484E5F075F0CF
:10056F000A842430FF1207DDE50875F00A84E5F0F0
:06057F002430FF0207DD3D
:040776007F0A7E0078
:10077A00EF1FAA0670011E4A600BE4FDEDC3940D3B
:05078A0050EE0D80F7A8
:01078F002247
:10058500E4FFFEC2B600C2B400D2B500D2B4C2B414
:10059500D2B5D2B400C2B4A20092B5D2B400C2B4EE
:1005A50000D2B57D08D2B4EF25E0FFC2B430B50561
:1005B5004307018000DDEE7D08EEC313FEC2B430B3
:1005C500B5054306808000D2B4DDEED2B6D2B5D2F1
:0A05D500B4EFB50603AF06227FFF66
:0105DF0022F9
:10072100E4FF1202C0FE74102FF582E43400F58359
:0D073100EEF0740129F9E43AFA0FBF10E56B
:01073E002298
:1006E0007FC01207D3E4F50D7410250DF582E434B4
:1006F00000F583E0FF1207DD050DE50DC394104002
:01070000E711
:0107010022D5
:0B07C800EF1FAC0670011E4C70F62203
:10073F00E4F50DD2B77F04FE1207C8C2B77F647EFF
:0D074F00001207C8D2B77F287E000207C83D
:0906BB007F017E001207C87FCC0C
:0206C400AD0780
:1006C600E4FBC2B7ED1392B77F0A7E001207C8D2C9
:0906D600B7EDC313FD0BBB08E9ED
:0106DF0022F8
:10070200E4FDFBC2B7EBC313FBD2B730B70343031D
:0E071200807F0A7E001207C80DBD08E7AF0306
:0107200022B6
:1005E000E4FFFE12073F1206BB7F441206C4120747
:1005F0003F1206BB7FBE1206C4120702AA071207EB
:1006000002EFFEEAFFAD07AC06EC120206E4FBFACD
:1006100079C878401200FBE4FBFAF9783F12000A2F
:0306200012023F84
:0106230022B4
:100003000202ABE86480F8E933E83360110460F07E
:10001300ED33EC337009E8FCE9FDEAFEEBFF220463
:1000230060DED3EB9FEA9EE99DE8C2E78CF0C2F75E
:1000330095F0400CE8CCF8E9CDF9EACEFAEBCFFB2A
:1000430012027685D0F05804700320D5B3E804700B
:10005300075002B2D50202B592D5EC0460F7E4CCA6
:10006300C0E0C398F8603B94186008400DD0E0FBF3
:1000730002028DE4FBFAC9FC8028E830E406E4C9F7
:10008300FBE4CAFCE830E305E4C9CACBFCE8540747
:100093006010F8C3E913F9EA13FAEB13FBEC13FC52
:1000A300D8F130F52FC3E49CFCEF9BFFEE9AFEEDF5
:1000B30099FDD0E0FBEF4E4D4C701222DB030202A0
:1000C300B2EC2CFCEF33FFEE33FEED33FDED30E706
:1000D300EB02028DEF2BFFEE3AFEED39FDD0E0FB94
:1000E30050130BBB00030202B5ED13FDEE13FEEF3D
:0800F30013FFEC13FC02028D67
:1000FB00EC4D6011E8497017ED33EC3304600DE4FF
:10010B00FCFFFEFD22E933E8330470F80202AB1268
:10011B00027658046009E4CC248150062850090269
:10012B0002B52840030202B2C0E0EB4A7044B9802A
:10013B0006D0E0FB0202A1EF4E701CBD8008EBFF66
:10014B00EAFEE9FD80EBE98DF0A4FEE5F00201E4A7
:10015B00E9CDF9EAFEEBFFEF89F0A4FCE5F0CE89DF
:10016B00F0A42EFFE435F0CD89F0A42DFEE435F09C
:10017B008067EF4E7005BD80D780C3EF8BF0A4ACCA
:10018B00F0EE8BF0A42CFCE435F0F8EF8AF0A42C05
:10019B00E5F038FCE433CB8DF0A42CFCE5F03BF818
:1001AB00EE8AF0A42CFCE5F038F8E433CF89F0A408
:1001BB002CFCE5F038CF3400CE89F0A42FFFE5F00E
:1001CB003EFEE433C98DF0A42EFEE5F039CD8AF066
:1001DB00A42FFFE5F03EFEE43DFD33D0E0FB5007DE
:1001EB000BBB000F0202B5EC2CFCEF33FFEE33FE22
:0601FB00ED33FD02028D50
:1002010075F020800E75F010800575F0087D007E78
:10021100007F003392D530D50312030FEC33401029
:10022100EF33FFEE33FEED33FDEC33FCD5F0ED2281
:0E023100E5F0247EA2D513CC92E7CDCEFF22BD
:10023F00EDD2E7CD33EC3392D524814006E4FFFEB7
:10024F00FDFC22FCE4CFCECDCC24E0501174FF8016
:10025F00EDC3CC13CCCD13CDCE13CECF13CF0470B3
:07026F00F030D5DE02030FA1
:10027600E9D2E7C933E833F892D5EDD2E7CD33ECCE
:0702860033FC5002B2D52247
:10028D00EC30E7100FBF000C0EBE00080DBD0004D2
:10029D000BEB6014A2D5EB13FCED92E7FD2274FF7E
:1002AD00FCFDFEFF22E480F8A2D574FF13FC7D80D7
:0302BD00E480EFEB
:1002C000BB010689828A83E0225002E722BBFE023C
:0902D000E32289828A83E493226F
:1002D900C2D5EC30E709B2D5E4C39DFDE49CFCEE40
:1002E90030E715B2D5E4C39FFFE49EFE12031DC398
:1002F900E49DFDE49CFC800312031D30D507C3E493
:060309009FFFE49EFE22AE
:0E030F00C3E49FFFE49EFEE49DFDE49CFC22FF
:10031D00BC000BBE0029EF8DF084FFADF022E4CCC4
:10032D00F875F008EF2FFFEE33FEEC33FCEE9DEC8D
:10033D00984005FCEE9DFE0FD5F0E9E4CEFD22EDD3
:10034D00F8F5F0EE8420D21CFEADF075F008EF2F1D
:10035D00FFED33FD4007985006D5F0F222C398FD0E
:05036D000FD5F0EA22AB
:00000001FF
